:030000000211D515
:0C11D500787FE4F6D8FD75812E020F36FD
:0711F10054656D703A200007
:0311770012117AD8
:10117A00758AF5758CFFD28C308DFDC28CC28D229A
:0811E100758901C28DC28C2248
:0811E900D29112117AC2912289
:10115700E4FDFCC3ED9FEC9E5015E4FBFA0BBB00CE
:0F116700010ABA04F8BBFBF50DBD00010C80E4D2
:011176002256
:100F3600D291C2921211A87BFF7A1179F112113463
:100F46001211E1D287D285D28675B0FFC286D286CB
:100F56002087FDC28585B0177F8712118AE5177530
:100F6600F002A4FFAEF07C007D0A120C67EF24307D
:100F7600FF121199E51775F002A4FFAEF07C007D13
:100F86000A120C67ED2430FF1211997F4312119952
:100F9600D2851211E93090FDD28C309003308DFA53
:100FA600C28CE4F528F5277526C07525C0FFFE7DA1
:100FB600207C41120E1F7B807A5F791178471208D8
:100FC600008F0B8E0A8D098C08AF8CEFAD8AFCEC76
:100FD600120A248F1C8E1B8D1A8C19AF0BAE0AAD0C
:100FE60009AC08AB1CAA1BA91AA819120800E4FB35
:100FF600FAF978401209098F1C8E1B8D1A8C19E498
:10100600FFFE7D107C41AB1CAA1BA91AA819120968
:10101600A6500AD29212117712117A8002C2921247
:051026001177020F49E3
:0F118A008FA0C284D282C2827F0A7E00021157D8
:0F1199008FA0D284D282C2827F0A7E00021157B9
:0F11A8007F3812118A7F0E12118A7F0102118A7D
:0F11B7007F1012118A7F201211997F1002118A66
:101134008B218A228923AB21AA22A923120C4EFFD8
:10114400601012119974012523F523E43522F52248
:0311540080E42212
:0F11C600C286D2862087FDC28585B017AF17225B
:030023000210C503
:1010C500C0E0C0F0C0D075D000C000C002C003C0F1
:1010D50004C005C006C007309904C299803C7F87CB
:1010E50012118AAF99EF75F002A4FFAEF07C007D76
:1010F5000A120C67EF2430FF121199AF99EF75F0C2
:1011050002A4FFAEF07C007D0A120C67AF05ED244A
:1011150030FF1211997F43121199D007D006D005DF
:0F112500D004D003D002D000D0D0D0F0D0E03230
:10080000EC4D6011E8497017ED33EC3304600DE4F2
:10081000FCFFFEFD22E933E8330470F8020A92126D
:100820000A5D58046009E4CC24815006285009026E
:100830000A9C284003020A99C0E0EB4A7044B98040
:1008400006D0E0FB020A88EF4E701CBD8008EBFF6B
:10085000EAFEE9FD80EBE98DF0A4FEE5F00208E98F
:10086000E9CDF9EAFEEBFFEF89F0A4FCE5F0CE89D3
:10087000F0A42EFFE435F0CD89F0A42DFEE435F090
:100880008067EF4E7005BD80D780C3EF8BF0A4ACBE
:10089000F0EE8BF0A42CFCE435F0F8EF8AF0A42CF9
:1008A000E5F038FCE433CB8DF0A42CFCE5F03BF80C
:1008B000EE8AF0A42CFCE5F038F8E433CF89F0A4FC
:1008C0002CFCE5F038CF3400CE89F0A42FFFE5F002
:1008D0003EFEE433C98DF0A42EFEE5F039CD8AF05A
:1008E000A42FFFE5F03EFEE43DFD33D0E0FB5007D2
:1008F0000BBB000F020A9CEC2CFCEF33FFEE33FE27
:06090000ED33FD020A7454
:10090600020A9CEC5D046005E859047003020A9231
:10091600120A5D580460F6EC4860F2EC7004FDFEC5
:10092600FF22C860DB2481C85009C39860025006C4
:10093600020A999850CAF582E9294B4A7005AB829A
:10094600020A8875F0007C1A7880C3EF9BEE9AED58
:1009560099400DC3EF9BFFEE9AFEED99FDE842F03C
:10096600DC23ACF0D0E0FFD0E0FED0E0FDAB82208F
:10097600E7101BEB60BAEC2CFCEF33FFEE33FEED19
:1009860033FD020A74E803F830E705C0F075F0009D
:10099600EF2FFFEE33FEED33FD40B830E7C280AAFD
:1009A60074F8CC6480CCC86480C8F58204604FC3F8
:1009B600EB9FF5F0EA9E42F0E99D42F0E89C45F097
:1009C600603C501DE5825FFFE582D313CB5BCBF421
:1009D6002B5582FB50280ABA002409B9002008804A
:1009E6001DE5825BFBE582D313CF5FCFF4C3132FE4
:1009F6005582FF50090EBE00050DBD00010CC3EB6C
:100A06009FF5F0EA9E42F0E99D42F0E89C45F060D1
:090A160007CC4820E701B3EC22F3
:100A1F0075F020800E75F010800575F0087D007E52
:100A2F00007F003392D530D503120CBCEC3340104D
:100A3F00EF33FFEE33FEED33FDEC33FCD5F0ED225B
:0E0A4F00E5F0247EA2D513CC92E7CDCEFF2297
:100E1F008F248E238D228C21E4FFFE7D807C3FABBF
:100E2F0024AA23A922A8211209A67009AF24AE2350
:100E3F00AD22AC2122AF24AE23AD22AC21120AA7E2
:100E4F00FBAF28AE27AD26AC25120AA7FFBF0108BE
:100E5F00E4FFFE7D807C3F22EF64046022EB64049C
:100E6F00601DBB0127E4FFFEFDFCAB28AA27A926C6
:100E7F00A8251209A660084006E4FFFEFDFC2274B7
:100E8F00FFF528F527F526F525020F2DE4F529F5B1
:100E9F002AFFFEFDFCAB24AA23A922A8211209A632
:100EAF00504BAF28AE27AD26AC25120BCA8E298F1B
:100EBF002AAC29AD2AEC120A24C8ECC8C9EDC9CA5C
:100ECF00EECACBEFCBAF28AE27AD26AC25120AC4A6
:100EDF00E4FBFAF9F81209A670A5AF24AE23AD22F0
:100EEF00AC21120BB98F248E238D228C21AF24AE0F
:100EFF0023AD22AC21120D1EAB28AA27A926A825A7
:100F0F001208001210638F288E278D268C25E52A54
:100F1F0030E00B120BB98F288E278D268C25AF282A
:070F2F00AE27AD26AC252220
:100A5D00E9D2E7C933E833F892D5EDD2E7CD33ECDF
:070A6D0033FC5002B2D52258
:100A7400EC30E7100FBF000C0EBE00080DBD0004E3
:100A84000BEB6014A2D5EB13FCED92E7FD2274FF8F
:100A9400FCFDFEFF22E480F8A2D574FF13FC7D80E8
:030AA400E480EFFC
:100AA700ED33EC33601004700FED547F7005740262
:0A0AB70092E0227404220422E422DB
:100AC100020A92E86480F8E933E83360110460F0C7
:100AD100ED33EC337009E8FCE9FDEAFEEBFF22049B
:100AE10060DED3EB9FEA9EE99DE8C2E78CF0C2F796
:100AF10095F0400CE8CCF8E9CDF9EACEFAEBCFFB62
:100B0100120A5D85D0F05804700320D5B3E8047053
:100B1100075002B2D5020A9C92D5EC0460F7E4CCEE
:100B2100C0E0C398F8603B94186008400DD0E0FB2A
:100B3100020A74E4FBFAC9FC8028E830E406E4C93F
:100B4100FBE4CAFCE830E305E4C9CACBFCE854077E
:100B51006010F8C3E913F9EA13FAEB13FBEC13FC89
:100B6100D8F130F52FC3E49CFCEF9BFFEE9AFEED2C
:100B710099FDD0E0FBEF4E4D4C701222DB03020ACF
:100B810099EC2CFCEF33FFEE33FEED33FDED30E756
:100B9100EB020A74EF2BFFEE3AFEED39FDD0E0FBDC
:100BA10050130BBB0003020A9CED13FDEE13FEEF85
:080BB10013FFEC13FC020A74AF
:100BB900ED33EC33600A047003BD8004ECB2E7FC4A
:010BC9002209
:100BCA00EDD2E7CD33EC3392D524814006E4FFFE23
:100BDA00FDFC22FCE4CFCECDCC24E0501174FF8082
:100BEA00EDC3CC13CCCD13CDCE13CECF13CF04701F
:070BFA00F030D5DE020CBC57
:10102B0033DA929E35B16011377FE5FE3921848921
:10103B003AAEC3FF3C1D955B3D6358473E75FDF0D3
:10104B003F3172183F800000C2D5020A9C020A92FF
:10105B00BD80FA50F3020A99ED33EC330460F17B57
:10106B003B7AAA79B8783F120800ED33EC3392D56E
:10107B00247B5011A2D570DB500BED44802404501F
:10108B0004A2D580CEEFFBEEFAEDF9ECF8120BCA09
:10109B00EFF582F404FC120A29120AC8C0829010E0
:1010AB002B7409120C10ED33CC33D0F092D525F004
:0A10BB00A2D57001C313CC13FD226F
:100CEA003E9248DA3ECCCCCD3F2AAAAB4000000067
:100CFA003F8000003F9837F03FB504F33FD744FCEC
:100D0A003E3172173EB172173F0515913EDE5BD92F
:100D1A00D2008002C200EDD2E7F8CD33EC33047082
:100D2A000BBD800592D5020A9C020A9240FBD3149D
:100D3A0060F2F5F07C3FEE7A00C39496C8948B403B
:100D4A00230AC89469C8941A401A0AC89468C894AD
:100D5A001F40110AC8945AC89425400805F07A0021
:100D6A00CDC2E7CDC0F08C2B8D2C8E2D8F2EEA2391
:100D7A0023C0E024FAF582E4340CF583120CDA126B
:100D8A000AC8ECC0E0EDC0E0EEC0E0EFC0E0120C33
:100D9A00CAA82BA92CAA2DAB2E120AC4D0E0FBD0CC
:100DAA00E0FAD0E0F9D0E0B2E7F81209098C2B8D0D
:100DBA002C8E2D8F2E900CEA7403120C01A82BA9ED
:100DCA002CAA2DAB2E120800D0E0600F2406F58263
:100DDA00E4340DF583120CDA120AC88C2B8D2C8E92
:100DEA002D8F2ED0E0C3947FFDE49400FC120A24D8
:100DFA007B187A727931783F120800A82BA92CAA9D
:100E0A002DAB2E120AC830000B7BD97A5B79DE78BB
:050E1A003E1208002259
:100C0100C0E0EFFBEEFAEDF9ECF8120800D0E0F5E8
:100C1100F0EFFBEEFAEDF9ECF8120CCAA3A3A3A3D3
:100C2100E8C0E0E9C0E0EAC0E0EBC0E0C0F01208D3
:100C310000120CDAA3A3A3A3120AC8D0F0D0E0FBE0
:0D0C4100D0E0FAD0E0F9D0E0F8D5F0D422F0
:100C4E00BB010689828A83E0225002E722BBFE02A4
:090C5E00E32289828A83E49322D7
:100C6700BC000BBE0029EF8DF084FFADF022E4CC71
:100C7700F875F008EF2FFFEE33FEEC33FCEE9DEC3A
:100C8700984005FCEE9DFE0FD5F0E9E4CEFD22ED80
:100C9700F8F5F0EE8420D21CFEADF075F008EF2FCA
:100CA700FFED33FD4007985006D5F0F222C398FDBB
:050CB7000FD5F0EA2258
:0E0CBC00C3E49FFFE49EFEE49DFDE49CFC2249
:100CCA00E493FC740193FD740293FE740393FF2270
:100CDA00E493F8740193F9740293FA740393FB2270
:00000001FF
