:100C0800456E7465722050617373776F72643A2011
:100C180000436F72726563742050617373776F72EB
:100C2800640057726F6E672050617373776F7264D8
:060C3800003636363600DE
:070CB30075A884D28A80FEBF
:100BA500E4FF7590FEE590B4EE027F31E590B4DE8A
:100BB500027F32E590B4BE027F337590FDE590B4B7
:100BC500ED027F34E590B4DD027F35E590B4BD02DA
:100BD5007F367590FBE590B4EB027F37E590B4DB8B
:100BE500027F38E590B4BB027F397590F7E590B484
:100BF500E7027F2AE590B4D7027F30E590B4B702CB
:020C05007F234B
:010C070022CA
:060C3E008B178A188919CA
:100C4400E4F51AF51BF51AF51BAB17AA18A91985B3
:100C54001B82851A831208F6FF600D120C9F051B78
:080C6400E51B70E5051A80E1B3
:010C6C002265
:0A0C9F008FA0D2B0120C6DC2B1227A
:0A0CA9008FA0C2B0120C6DC2B12280
:060C6D00D2B17F0A7E00F7
:100C7300E4FDFCC3ED9FEC9E5015E4FAFB0BBB00B7
:0F0C8300010AEB64644A70F50DBD00010C80E4BA
:010C9200223F
:03001300020ABE20
:100ABE00C0E0C0F0C083C082C0D075D000C000C0FE
:0D0ACE0001C002C003C004C005C006C0077F
:100ADB00750800750900750A00750B00750C007818
:100AEB000D7C007D007BFF7A0C79397E007F05122F
:100AFB0008D0C2B27F38120CA97F0C120CA97F064A
:100B0B00120CA97F01120CA97F80120CA97BFF7A12
:100B1B000C7908120C3E120BA58F08E508601CAF70
:100B2B000A74122FF8A608EF24C0FF120CA97F2A13
:100B3B00120C9F050AE50A70020509E50A640445D3
:100B4B000970C57F01120CA9750900750A00780D93
:100B5B007C007D007B007A007912120AA1EF33959D
:100B6B00E0F50B8F0C450C7019B2B27F80120CA9FB
:100B7B007BFF7A0C7919120C3E7FF47E01120C73F9
:100B8B0080867F80120CA97BFF7A0C792A120C3E8F
:0A0B9B007FF47E01120C73020B13AD
:03000000020C935C
:0C0C9300787FE4F6D8FD75811B020CB3DD
:10080000E709F608DFFA8046E709F208DFFA803EDA
:1008100088828C83E709F0A3DFFA8032E309F608C7
:10082000DFFA8078E309F208DFFA807088828C832F
:10083000E309F0A3DFFA806489828A83E0A3F608E3
:10084000DFFA805889828A83E0A3F208DFFA804CBD
:1008500080D280FA80C680D4806980F28033801094
:1008600080A680EA809A80A880DA80E280CA8033FD
:1008700089828A83ECFAE493A3C8C582C8CCC58375
:10088000CCF0A3C8C582C8CCC583CCDFE9DEE78045
:100890000D89828A83E493A3F608DFF9ECFAA9F0C4
:1008A000EDFB2289828A83ECFAE0A3C8C582C8CC1A
:1008B000C583CCF0A3C8C582C8CCC583CCDFEADE33
:1008C000E880DB89828A83E493A3F208DFF980CC95
:1008D00088F0EF60010E4E60C388F0ED2402B4048E
:1008E0000050B9F582EB2402B4040050AF23234535
:0608F00082239008507302
:1008F600BB010CE58229F582E5833AF583E02250B7
:1009060006E92582F8E622BBFE06E92582F8E22200
:0D091600E58229F582E5833AF583E493221A
:10092300E3F5F009E208B5F06D606B80F3E3F5F0F1
:1009330009E608B5F060605E80F387F009E608B564
:10094300F054605280F487F009E208B5F04860463D
:1009530080F488828C8387F009E0A3B5F038603691
:1009630080F488828C8387F009E493A3B5F0276031
:100973002580F388828C83E3F5F009E0A3B5F016B4
:10098300601480F388828C83E3F5F009E493A3B5C4
:10099300F004600280F2020A4E808580E7808E8038
:1009A300D2803C8015806C807E809B80B5808B805C
:1009B300A1804F8070803A020A5A89828A83ECFAB6
:1009C300E493F5F0A3C8C582C8CCC583CCE493A354
:1009D300C8C582C8CCC583CCB5F070606E80E18990
:1009E300828A83E493F5F0A3E208B5F05E605C804D
:1009F300F289828A83E0F5F0A3E608B5F04D604BF7
:100A030080F389828A83E0F5F0A3E208B5F03C60C5
:100A13003A80F389828A83E493F5F0A3E608B5F07C
:100A23002A602880F2805389828A83ECFAE493F562
:100A3300F0A3C8C582C8CCC583CCE0A3C8C582C80F
:100A4300CCC583CCB5F004600280E27FFFB5F00231
:100A53000F2240027F012289828A83ECFAE0F5F0BB
:100A6300A3C8C582C8CCC583CCE0A3C8C582C8CC03
:100A7300C583CCB5F0D560D380E389828A83ECFA51
:100A8300E0F5F0A3C8C582C8CCC583CCE493A3C862
:100A9300C582C8CCC583CCB5F0B160AF80E288F025
:100AA300ED2402B4040050A3F582EB2402B4040045
:0B0AB3005099232345822390099C7377
:00000001FF
